:100000000C945C000C9479000C9479000C947900A9
:100010000C9479000C9479000C9479000C9479007C
:100020000C9479000C9479000C9479000C9479006C
:100030000C9479000C9451040C9479000C94790080
:100040000C94C3030C9479000C9437040C9479003D
:100050000C940D040C9479000C9479000C947900A4
:100060000C9479000C947900000000002400270013
:100070002A0000000000250028002B0004040404CE
:100080000404040402020202020203030303030342
:10009000010204081020408001020408102001021F
:1000A00004081020000000080002010000030407FB
:1000B000000000000000000011241FBECFEFD8E0B8
:1000C000DEBFCDBF11E0A0E0B1E0E2E4F1E102C0AB
:1000D00005900D92A231B107D9F728E0A2E1B1E075
:1000E00001C01D92A038B207E1F70E9404050C94EC
:1000F0009F080C94000090E0FC01EC55FF4F3491F8
:10010000FC01E057FF4F2491FC01E458FF4FE491BC
:10011000EE2309F43BC0332339F1333091F038F446
:100120003130A9F0323001F584B58F7D12C03730FF
:1001300091F03830A1F03430B9F4809180008F7D97
:1001400003C0809180008F77809380000DC084B5BC
:100150008F7784BD09C08091B0008F7703C08091F4
:10016000B0008F7D8093B000F0E0EE0FFF1FEE58DF
:10017000FF4FA591B4918FB7F894EC91611103C032
:1001800020952E2301C02E2B2C938FBF08958E30E7
:1001900008F08E508770806480937C0080917A0094
:1001A000806480937A0080917A0086FDFCCF8091F4
:1001B00078002091790090E0922B08950895DC0159
:1001C000FB018C91808311968C91119781831296FB
:1001D0008C911297828313968C9113978383149634
:1001E0008C911497848315968C9115978583169618
:1001F0008C911697868317968C91179787831896FC
:100200008C911897808719968C91199781871A96E7
:100210008C911A9782871B968C911B9783871C96CB
:100220008C911C9784871D968C911D9785871E96AF
:100230008C911E9786871F968C911F978787509663
:100240008C915097808B51968C915197818B5296BF
:100250008C915297828B53968C915397838B5496A3
:100260008C915497848B55968C915597858B569687
:100270008C915697868B57968C915797878B58966B
:100280008C915897808F59968C91818F0895CF9338
:10029000DF93CDB7DEB76A970FB6F894DEBF0FBE17
:1002A000CDBF81E08093FE018091FC01882381F124
:1002B0008091FB012AE1829FC0011124BE016F5F82
:1002C0007F4F80509E4F0E94DF008091FD0191E0A2
:1002D000980F9093FD01E1E0F0E0EC0FFD1FE80FB7
:1002E000F11D80819A3110F01092FD019091FD0175
:1002F00091110FC09091FB019F5F903408F090E046
:100300009093FB019091FC0191509093FC0101C0EE
:1003100080E01092FE016A960FB6F894DEBF0FBE21
:10032000CDBFDF91CF910895EF92FF920F931F936E
:10033000CF93DF93CDB7DEB76A970FB6F894DEBFE1
:100340000FBECDBF80E10E94C7008C0190932C01AD
:1003500080932B0181E10E94C70090931E0180933E
:100360001D011092DE011092DD011092E201109247
:10037000E1011250A801012E000C660B770B40938F
:100380002701509328016093290170932A019C0151
:100390003250C901032E000CAA0BBB0B8093230122
:1003A00090932401A0932501B093260188279927D3
:1003B000801B910B821B930B092E000CAA0BBB0B0D
:1003C00080931F0190932001A0932101B0932201FB
:1003D0001092EB011092EC011092ED011092EE01DF
:1003E0001092E7011092E8011092E9011092EA01DF
:1003F000809173019091740190931C0180931B0173
:1004000020917A01213049F41092170110921801BD
:100410001092190110921A010EC021110CC040E077
:1004200050E060E070E8409317015093180160932A
:10043000190170931A0120917901213049F4109229
:1004400013011092140110921501109216010EC0A2
:1004500021110CC040E050E060E070E840931301CF
:100460005093140160931501709316018B3F910511
:1004700054F021E020937A019093780180937701E2
:10048000209379010FC086302FEF920784F41092E9
:100490007A019195819591099093780180937701E4
:1004A00010927901909376018093750108C01092A3
:1004B00078011092770110927601109275010091E7
:1004C00075011091760110936E0100936D0180917A
:1004D00077019091780190936C0180936B01F0907B
:1004E0007901E0907A016E2D85E00E947B0061E049
:1004F000E11060E084E00E947B0061E0F11060E0C8
:1005000083E00E947B006F2D82E00E947B0080913F
:10051000860090918700801B910B909389008093B7
:100520008800809186009091870020916B01309126
:100530006C01821B930B90938B0080938A008091B7
:100540006F0190917001A0917101B09172010196BB
:10055000A11DB11D80936F0190937001A093710153
:10056000B093720120915F01213009F0FFC08093A8
:1005700047019093480180912B0190912C01905854
:100580008093490190934A0120E030E04AE754E427
:1005900060918F01709190018091910190919201F1
:1005A0000E94E20720E030E040E057E40E94F606B7
:1005B0000E94620760934B0170934C019091E1019E
:1005C0008091E20190934D0180934E0190916D01D5
:1005D00080916E0190934F0180935001809127018B
:1005E00090912801905880935101909352018091ED
:1005F00023019091240190588093530190935401CA
:1006000080911F0190912001905880935501909303
:10061000560120E030E040E057E46091C70170915E
:10062000C8018091C9019091CA010E94F6060E94FA
:100630006207609357017093580120E030E04AE769
:1006400054E46091D3017091D4018091D5019091CF
:10065000D6010E94E20720E030E040E057E40E942B
:10066000F6060E9462076093590170935A018091C7
:10067000730190917401905880935B0190935C0199
:1006800080911D0190911E01905880935D0190937F
:100690005E018EE780932D01E7E4F1E0AEE2B1E088
:1006A00081918D9381E0EF35F807D1F781E8809350
:1006B00046018AE1EDE2F1E0DE01119601900D9232
:1006C0008A95E1F78091FE01813031F48091FF013C
:1006D00082608093FF0142C082E08093FE0180919E
:1006E000FC016091FA018034C0F42AE1629FB001FC
:1006F000112460507E4FCE0101960E94DF00809150
:10070000FA018F5F803408F080E08093FA018091D5
:10071000FC018F5F8093FC011FC08091FF0181600D
:100720008093FF018091FB018F5F803408F080E0AF
:100730008093FB018AE1689FB001112460507E4FD5
:10074000CE0101960E94DF008091FA018F5F803414
:1007500008F080E08093FA011092FE010E944701A8
:100760009091C00095FFFCCF8093C6006A960FB6AB
:10077000F894DEBF0FBECDBFDF91CF911F910F91D7
:10078000FF90EF9008951F920F920FB60F921124D1
:100790002F933F938F939F93AF93BF938091F601D5
:1007A0009091F701A091F801B091F9013091F50114
:1007B00023E0230F2D3720F40196A11DB11D05C0A4
:1007C00026E8230F0296A11DB11D2093F501809309
:1007D000F6019093F701A093F801B093F90180918D
:1007E000F1019091F201A091F301B091F401019611
:1007F000A11DB11D8093F1019093F201A093F3012B
:10080000B093F401BF91AF919F918F913F912F9140
:100810000F900FBE0F901F9018951F920F920FB65A
:100820000F9211242F933F934F935F936F937F9376
:100830008F939F93AF93BF93EF93FF938091FC01AE
:10084000882321F00E9447018093C600FF91EF9119
:10085000BF91AF919F918F917F916F915F914F91D8
:100860003F912F910F900FBE0F901F9018951F92E0
:100870000F920FB60F9211248F938091C600809330
:10088000F0018091F001882321F081E080935F01E5
:1008900002C010925F018F910F900FBE0F901F90BA
:1008A00018951F920F920FB60F921124CF92DF92DC
:1008B000EF92FF920F931F932F933F934F935F936A
:1008C0006F937F938F939F93AF93BF93EF93FF9318
:1008D000CF93DF931F92CDB7DEB72091F00130E0C8
:1008E000A0E0BDE70E946E082FE730E040E050E056
:1008F0000E944F08C901019780389E4330F0C9011A
:1009000081589E4380389E4310F420583E433093D4
:100910007401209373016091EF0181E06827609377
:10092000EF0187E00E947B0084E0C82E81E0D82E92
:100930000AE011E080E0FF24F394EE24EA94F6014B
:1009400042815381208131814217530778F1E09130
:100950001201AE2FB0E0A050BF4F9C91891730F527
:10096000D8019C91911122C0D60113961C921E921F
:100970001297D801FC92EF5FE0931201F0E0E05093
:10098000FF4F8083D6011496ED91FC9115978983D2
:100990000995F801108290911201E92FF0E0E050E2
:1009A000FF4FE0829150909312018981D6011296F7
:1009B0002D913C9113972F5F3F4F13963C932E93AD
:1009C0001297B7E0CB0ED11C095F1F4F813011F099
:1009D00081E0B5CF0F90DF91CF91FF91EF91BF9163
:1009E000AF919F918F917F916F915F914F913F91C7
:1009F0002F911F910F91FF90EF90DF90CF900F906C
:100A00000FBE0F901F901895789484B5826084BDB6
:100A100084B5816084BD85B5826085BD85B5816002
:100A200085BD80916E00816080936E001092810080
:100A3000809181008260809381008091810081603B
:100A400080938100809180008160809380008091FC
:100A5000B10084608093B1008091B0008160809388
:100A6000B00080917A00846080937A0080917A004F
:100A7000826080937A0080917A00816080937A000E
:100A800080917A00806880937A001092C1008091F2
:100A90007A00887F80937A0080917A0084608093C6
:100AA0007A0080917A00806880937A008FB78FBF38
:100AB0001092C50083E08093C40088ED8093C1004C
:100AC00086E08093C2001092690110926A01109230
:100AD000640110925F011092FC011092FD011092CE
:100AE000FA011092FB0180E090E0FC01E650FE4F1D
:100AF0001682178210861186128613861486158632
:100B000016861786108A118A128A138A148A158A01
:100B1000168A178A108E118E128E138E148E158ED1
:100B2000168E178E4A96803826E09207F1F6529A72
:100B3000539A559A549A8FB7F8949BB19BB98FBF2B
:100B40008FB7F8949BB19BB98FBF8FB7F8949BB1C7
:100B50009BB98FBF8FB7F8949BB19BB98FBF219A78
:100B6000229A82EF8093800081E18093810080E867
:100B70009EE3909387008093860081E080936F00CE
:100B80008FB780688FBF10926F0110927001109222
:100B900071011092720110928900109288001092D7
:100BA0008B0010928A0010926E0110926D011092CB
:100BB0006C0110926B011092BF011092C001109253
:100BC000C1011092C2011092C3011092C40110928F
:100BD000C5011092C6011092C7011092C80110926F
:100BE000C9011092CA0184E89DE4A8EFB5E380939F
:100BF000CB019093CC01A093CD01B093CE018FE4B3
:100C000094E5ACEFB5E38093CF019093D001A0932E
:100C1000D101B093D2011092A3011092A4011092BD
:100C2000A5011092A6011092A7011092A80110929E
:100C3000A9011092AA011092AB011092AC0110927E
:100C4000AD011092AE0183E19EE6A6EAB6E3809381
:100C5000AF019093B001A093B101B093B20181E8CC
:100C600093E0AFEFB4E38093B3019093B401A0930A
:100C7000B501B093B60110928F01109290011092BD
:100C8000910110929201109293011092940110928E
:100C9000950110929601109297011092980110926E
:100CA000990110929A0110929B0110929C0110924E
:100CB0009D0110929E0180E090EEABEEB4E4809333
:100CC0009F019093A001A093A101B093A201109263
:100CD0007B0110927C0110927D0110927E01109296
:100CE0007F01109280011092810110928201109276
:100CF0008301109284011092850110928601109256
:100D00008701109288011092890110928A0182E570
:100D100098EBA0EBB1E480938B0190938C01A093AE
:100D20008D01B0938E0110927A0110927901109288
:100D3000780110927701109276011092750110924D
:100D40007401109273011092E6011092E501109265
:100D5000E4011092E3018091E1019091E20190930E
:100D6000E0018093DF018091DD019091DE0190939D
:100D7000DC018093DB011092EB011092EC011092E8
:100D8000ED011092EE011092E7011092E80110922D
:100D9000E9011092EA01E7E9F0E02491E3E8F0E0EC
:100DA0008491882399F090E0880F991FFC01E859FD
:100DB000FF4FA591B491FC01EE58FF4F859194919E
:100DC0008FB7F894EC91E22BEC938FBF60E087E053
:100DD0000E947B001092F0011092EF01C0E0D0E081
:100DE0002097F1F30E940000FBCF5058BB27AA27A1
:100DF0000E940D070C94A8070E949A0738F00E94E1
:100E0000A10720F039F49F3F19F426F40C949707BA
:100E10000EF4E095E7FB0C949107E92F0E94B907C7
:100E200058F3BA17620773078407950720F079F41F
:100E3000A6F50C94DB070EF4E0950B2EBA2FA02D2F
:100E40000B01B90190010C01CA01A0011124FF2777
:100E5000591B99F0593F50F4503E68F11A16F04072
:100E6000A22F232F342F4427585FF3CF4695379571
:100E70002795A795F0405395C9F77EF41F16BA0B36
:100E8000620B730B840BBAF09150A1F0FF0FBB1FE4
:100E9000661F771F881FC2F70EC0BA0F621F731F2D
:100EA000841F48F4879577956795B795F7959E3F8A
:100EB00008F0B0CF9395880F08F09927EE0F97951B
:100EC000879508950E94C10788F09F5798F0B92F21
:100ED0009927B751B0F0E1F0660F771F881F991F6F
:100EE0001AF0BA95C9F714C0B13091F00E94DB072F
:100EF000B1E008950C94DB07672F782F8827B85F3F
:100F000039F0B93FCCF3869577956795B395D9F7C6
:100F10003EF490958095709561957F4F8F4F9F4FD0
:100F2000089597F99F6780E870E060E008959FEF6B
:100F300080EC089500240A94161617061806090670
:100F4000089500240A94121613061406050608953F
:100F5000092E0394000C11F4882352F0BB0F40F4C7
:100F6000BF2B11F460FF04C06F5F7F4F8F4F9F4F07
:100F7000089557FD9058440F551F59F05F3F71F089
:100F80004795880F97FB991F61F09F3F79F08795F0
:100F90000895121613061406551FF2CF4695F1DF79
:100FA00008C0161617061806991FF1CF8695710509
:100FB000610508940895E894BB2766277727CB013D
:100FC00097F908950E94F5070C94A8070E949A07C4
:100FD00038F00E94A10720F0952311F00C9491079E
:100FE0000C94970711240C94DC070E94B90770F346
:100FF000959FC1F3950F50E0551F629FF001729FBE
:10100000BB27F00DB11D639FAA27F00DB11DAA1FCC
:10101000649F6627B00DA11D661F829F2227B00D19
:10102000A11D621F739FB00DA11D621F839FA00DA4
:10103000611D221F749F3327A00D611D231F849FF4
:10104000600D211D822F762F6A2F11249F5750404B
:101050009AF0F1F088234AF0EE0FFF1FBB1F661FC6
:10106000771F881F91505040A9F79E3F510580F08F
:101070000C9491070C94DC075F3FE4F3983ED4F3A3
:10108000869577956795B795F795E7959F5FC1F733
:10109000FE2B880F911D9695879597F90895052E3B
:1010A00097FB1EF400940E94660857FD07D00E942B
:1010B0007D0807FC03D04EF40C94660850954095CB
:1010C000309521953F4F4F4F5F4F089590958095F4
:1010D000709561957F4F8F4F9F4F0895A29FB001EC
:1010E000B39FC001A39F700D811D1124911DB29F5C
:1010F000700D811D1124911D0895A1E21A2EAA1BC5
:10110000BB1BFD010DC0AA1FBB1FEE1FFF1FA217B7
:10111000B307E407F50720F0A21BB30BE40BF50BB4
:10112000661F771F881F991F1A9469F7609570953D
:10113000809590959B01AC01BD01CF010895F89475
:02114000FFCFDF
:10114200FF0000000100010094010005000500DE1F
:0211520000009B
:00000001FF
